{
  "id": 0,
  "jsonrpc": "2.0",
  "result": {
    "blockNumber": "0xfd0dc8",
    "cumulativeGasUsed": "0x0",
    "gasUsed": "0xd0e5",
    "logs": [
      {
        "anonymous": false,
        "inputs": [
          {
            "name": "src",
            "type": "address",
            "value": "0x0000000000000000000000000000000000000000"
          },
          {
            "name": "dst",
            "type": "address",
            "value": "0xf1f1f1f1f1f1f1f1f1f1f1f1f1f1f1f1f1f1f1f1"
          },
          {
            "name": "wad",
            "type": "uint256",
            "value": "2000000000000000000"
          }
        ],
        "name": "Transfer",
        "raw": {
          "address": "0x6b175474e89094c44da98b954eedeac495271d0f",
          "data": "0x0000000000000000000000000000000000000000000000001bc16d674ec80000",
          "topics": [
            "0xddf252ad1be2c89b69c2b068fc378daa952ba7f163c4a11628f55a4df523b3ef",
            "0x0000000000000000000000000000000000000000000000000000000000000000",
            "0x000000000000000000000000f1f1f1f1f1f1f1f1f1f1f1f1f1f1f1f1f1f1f1f1"
          ]
        }
      }
    ],
    "logsBloom": "0x00000000000000000000000000000000000000000000000000000000000000000000000000000000000000000000000000000000000000000000000000000000000000000000000000000008000000000000000000000000000000000000000010000000020000000004000000000800000000000000000000000010000000000000000000000100000000000000000000000000000000000000000000000000000000000000000000000000000000000000000000000000000000000000000000000002000000000000000000000000000002000000000000000000000020000000000000000000000000000000040000000000000000000000000000000000",
    "status": true,
    "trace": [
      {
        "decodedInput": [
          {
            "name": "usr",
            "type": "address",
            "value": "0xf1f1f1f1f1f1f1f1f1f1f1f1f1f1f1f1f1f1f1f1"
          },
          {
            "name": "wad",
            "type": "uint256",
            "value": "2000000000000000000"
          }
        ],
        "from": "0xe2e2e2e2e2e2e2e2e2e2e2e2e2e2e2e2e2e2e2e2",
        "gas": "0x79bd80",
        "gasUsed": "0x7c65",
        "input": "0x40c10f19000000000000000000000000f1f1f1f1f1f1f1f1f1f1f1f1f1f1f1f1f1f1f1f10000000000000000000000000000000000000000000000001bc16d674ec80000",
        "method": "mint",
        "output": "0x",
        "subtraces": 0,
        "to": "0x6b175474e89094c44da98b954eedeac495271d0f",
        "traceAddress": [0],
        "type": "CALL",
        "value": "0x0"
      }
    ],
    "type": "0x0"
  }
}
